:040000000C94590003
:100004000C94F8000C9403010C9400000C94000070
:100014000C9400000C9400000C9400000C9400005C
:100024000C9400000C9400000C9413010C94000038
:100034000C9400000C9400000C9400000C9400003C
:100044000C9400000C9400000C9400000C9400002C
:100054001027E80364000A000100001000011000EA
:1000640001000000000000006E756D626572203DA5
:1000740020253464003D3E00202020202020202024
:1000840020202020202020202020200080C00100CB
:1000940002006600040008006800030060017900A3
:1000A400140063017C000200960190000000F894A3
:1000B400EE27ECBBF1E0FBBFEBBFE5BF8DE0A2E0B8
:1000C400BB27ED938A95E9F780E094E0A0E6ED93F1
:1000D4000197E9F7E2E9F0E085919591009761F0E5
:1000E400A591B59105901590BF01F00105900D9271
:1000F4000197E1F7FB01F0CFEFE5EDBFE4E0EEBFE0
:10010400C0E6D1E00C945C0120FE0DC0E89420F818
:10011400F301AAE0B0E00E946404E40DF51D3F0180
:1001240018D10E94D8030895C3980E94F203B0998D
:1001340005C0E1E0F0E02F01689420F8B19905C012
:10014400E2E0F0E02F01689420F8B29905C0E3E002
:10015400F0E02F01689420F80E94F203C39AD4DFE0
:10016400C4980E94F203B09905C0E4E0F0E02F01C6
:10017400689420F8B19905C0E5E0F0E02F01689497
:1001840020F8B29905C0E6E0F0E02F01689420F869
:100194000E94F203C49AB8DFC5980E94F203B09992
:1001A40005C0E7E0F0E02F01689420F8B19905C09C
:1001B400E8E0F0E02F01689420F8B29905C0E9E086
:1001C400F0E02F01689420F80E94F203C59A9CDFA6
:1001D400C6980E94F203B19904C04424552468943B
:1001E40020F80E94F203C69A8FDF08950E94F60356
:1001F40066247724AED0A6E20E9402020E94D803AD
:100204004BC00E94F603A7E7B1E00E940902ADE0EB
:100214000E940202D99AA8EEB3E00E944504D9983C
:100224003BC00E94F6031A930A931BB10CB1063229
:1002340019F48FD066247724E12FEC7159F5E82D59
:100244008394F0E0E957FE4F0083EFE0E81509F4EA
:100254008824B394EFE0EB15E9F4BB24689421F807
:1002640078D0E0E0EA93A1E067D0A0E6B1E092D0D4
:10027400A7E8B1E08FD0E0E0EA93A2E05DD0A3E686
:10028400B1E088D066247724D89AA8EEB3E00E941F
:100294004504D89809911991E991EFBFF991E99131
:1002A400B991A9919991899179916991F99019904C
:1002B40009901895E8EFE7BBE7E0E8BB929A939AB8
:1002C400D09AD19AEBB7E06CEBBFEFE0E5BFE0E08A
:1002D400E4BFE0ECEABFE2E0EBB9E8E9EAB9E6E85A
:1002E400E0BDE0E0E0BDECE0E9B9A0E15DD07894E8
:1002F4001BDFFECFFFCFAA93E5B3EF70AE2FE881EB
:10030400E07FEA2BE5BB82E08A95F1F7AA9A82E0C6
:100314008A95F1F7AA9882E08A95F1F70C9407027E
:10032400AA93A881E8DFE881E295E883A881E3DF66
:1003340081E18A95F1F769C0AA93E881F0E0EA5671
:10034400FE4FE081A981AE0FEBDFA980D880229611
:100354000895A2E00E940404ACE0E2DFA1E00E9460
:100364000404E0E0DE2EAE2E0895AA93A881AA30FC
:1003740011F0AC1448F0E0E0EA93D394AD2DDCDF47
:10038400A881AA3009F441C0A394A89AA881C8DF1F
:10039400A8983BC0BA93AA931A930E940A0419F02E
:1003A400A12FE3DFFACF3EC0AA93E4B3E06FE4BB2E
:1003B400A29AA09AA19AAA98A898A998C880E88114
:1003C400E058E0939801E881E054E0939901A4E1B6
:1003D400B0E00E9445040E9412040E9412040E948C
:1003E4001204A0E288DF81E28A95F1F7A8E298DF9F
:1003F400A4E096DFA5E894DFA6E092DFAADF05C0BB
:10040400AA935D9BFECFE881ECB921960895BA9337
:10041400AA931A930E940A0419F0A12FF1DFFACFCC
:10042400AAE0EEDF188123960895BA93AA931A934B
:100434000A93AA81BB8112960E947704309759F1DE
:10044400AA81BB8114960E9477048F01309761F0D2
:100454000230E0E01E0798F0F80131978F01AA817D
:10046400BB811496ED93FC93AA81BB811296ED9106
:10047400FD913196FE93EE933197AC81A083AA81CE
:10048400BB810E947704FF232AF0ED91FD91319600
:10049400FE93EE9306C0AA81BB81EFEFFFEFED93CD
:1004A400FC931981088125960895BA93AA932697F7
:1004B4000E94840410E0AC85BD85E0E0F0E0ED939B
:1004C400FC93EA89FB893196EA8BFB8B3197E491A3
:1004D4002E2FE03009F415C1E12FE03039F4253234
:1004E40011F411E002C00E9419040AC1E130A9F418
:1004F400253219F40E94190402C112E040E000E020
:100504002D3211F401E0FCC02B3211F44BE2F8C09F
:10051400203211F440E2F4C002C0E23039F450E079
:1005240013E0203311F40068EBC003C0E33009F09A
:10053400E7C0203310F02A3308F007C0AAE05A9F1E
:10054400502DE22FE0535E0FDBC0E22FE33649F477
:100554000E942004E889F989A481AA930E942604B0
:10056400CEC0E33741F40E9420040E942C040E9470
:10057400BF031E2F0AC0E03761F40E9420040E94CA
:100584002C040E94CB031E2F086002600F7730E01A
:1005940034C0E43611F0E93611F4046002C0E537E2
:1005A40031F4E4E5F0E0EE83FF8315E00CC0E835B8
:1005B40011F4086003C0E83709F0A1C0EEE5F0E0EB
:1005C400EE83FF8314E002FF14C00E9420040E9403
:1005D4003604AB85AA233AF4EA85FB850E945304CA
:1005E400EA87FB874DE2403011F01F5F01C00B7FAB
:1005F40004C00E9420040E94360400FD11C0151797
:1006040078F407FF08C002FF04C00B7F242F1150A9
:1006140001C020E301C020E20E9419045150EFCF31
:10062400312F01FF17C03030A1F003FF06C0EE8167
:10063400FF812591EE83FF8305C0AE81BF812D919B
:10064400AE83BF830E941904503009F051503150D9
:10065400EACF4BC020E3EE81FF810E947B04E88750
:10066400F987EE81FF813296EE83FF83E885F98571
:10067400AA85BB85AE17BF0750F02F5FA885B98543
:10068400EA85FB85EA1BFB0BEA87FB87EFCF2A335E
:1006940028F003FF02C0295F01C0295D04FD1AC0D0
:1006A400213320F4A885B985119709F409C053179B
:1006B40010F000FF01C013C020E207FF0BC020E3CD
:1006C400006102FF07C00B7F4A930E94260450304A
:1006D40009F051500E941904503009F05150315022
:1006E400A885B985129708F0B5CF00FF08C050302F
:1006F40031F05150E0E2EA930E942604F8CF10E072
:10070400E0CEAC85BD850E9477040E948B0464967C
:100714000895FF92F82E26970E9486040E943E04B4
:10072400309719F4EFEFFFEF23C0DE0116960E9415
:100734004F048D010E943E04EE83FF83E0E0E887CE
:10074400E987DE011A960E944F040E947704FA9307
:10075400EA931A930A93E7E1F2E0FA93EA93DE014B
:100764001A96A3DE9F01AE81BF81E0E0EC93F9010C
:100774000E948D042A96FF900895BA93AA93A99192
:10078400B991EE27FF276D91662311F03196FBCFC7
:100794000895BA93AA93AA27BB27E991F9910590E2
:1007A400002011F01196FBCFFD010895E0E0EA93DB
:1007B400A0E00E949E01E7E7F1E0FA93EA93ECE6F9
:1007C400F0E0FA93EA93F3010E9457040E947F0435
:1007D40084E00E948B032896A7E7B1E00C94CC0137
:1007E400A2E3B0E00C9445040A921A92FA926A9336
:1007F4007A938A939A93AA93BA93EA93FA93EFB764
:10080400EA9308950E949201A3E0B0E00C94450499
:10081400A981BA81ED91A983BA831E2FE03008958E
:10082400A0E30E947D0181E28A95F1F708952A935D
:10083400AD85BE85EF85F88909950895E889F9891C
:100844003497E88BF98B0895AD85BE85EF85F889DB
:1008540009950895A889B98914960E947704EE83AE
:10086400FF83AE81BF810895A889B98914960E9437
:100874007704EA87FB870895DE011C960E944F04E3
:100884000E9477040895109639F0A8958AEF90E0B5
:100894000197F1F71197C9F708950024AF0DB01D22
:1008A4000895F195E195F04008956F2F660F660B5A
:1008B400762F0895FA9FF02DEB9FF00DEA9FE02D1F
:1008C400F10D089504D0F6DF0EF4EBDF0895E894FB
:1008D400F7FF02C0E6DF6894B7FF06C0A095B095A5
:1008E400119600F8039400FA0895ED91FC91119784
:1008F40008950590F491E02D08957A936A93FA93FC
:10090400EA9308955A934A933A932A931A930A932B
:1009140008955D814C813B812A8119810881089564
:00000001FF
