:100000000C9463000C948B000C948B000C94780679
:100010000C9478060C9478060C948B000C948B004E
:100020000C948B000C948B000C948B000C948B0024
:100030000C948B000C948B000C948B000C948B0014
:100040000C942E060C948B000C94FC050C94D60595
:100050000C948B000C948B000C948B000C948B00F4
:100060000C948B000C948B000000000024002700EF
:100070002A0000000008000201000003040700003D
:1000800000000000000000000000230026002900FE
:1000900000000000250028002B00040404040404D0
:1000A0000404020202020202030303030303010227
:1000B00004081020408001020408102001020408F6
:1000C0001020F006480A11241FBECFEFD8E0DEBF93
:1000D000CDBF22E0A2E9B1E001C01D92A73CB2076A
:1000E000E1F711E0A0E0B1E0ECE5FEE102C005902F
:1000F0000D92A239B107D9F710E0C2E6D0E004C0F2
:100100002197FE010E94290DC136D107C9F70E942F
:100110000F080C94210F0C940000DC01ED91FC9170
:100120000190F081E02D0994AF92BF92CF92DF92BF
:10013000EF92FF920F931F93CF93DF936C017B019C
:100140008B01040F151FEB015E01AE18BF08C0172D
:10015000D10759F06991D601ED91FC910190F081A0
:10016000E02DC6010995892B79F7C501DF91CF9163
:100170001F910F91FF90EF90DF90CF90BF90AF90C5
:100180000895FC01538D448D252F30E0842F90E09D
:10019000821B930B541710F0CF9608950197089582
:1001A000FC01918D828D981761F0A28DAE0FBF2F4B
:1001B000B11D5D968C91928D9F5F9F73928F90E0A1
:1001C00008958FEF9FEF0895FC01918D828D981710
:1001D00031F0828DE80FF11D858D90E008958FEF4D
:1001E0009FEF0895FC01918D228D892F90E0805C16
:1001F0009F4F821B91098F739927089589EE91E093
:100200000E94F20021E0892B09F420E0822F08955A
:1002100080E090E0892B29F00E94FE0081110C946F
:1002200000000895FC01A48DA80FB92FB11DA35A99
:10023000BF4F2C91848D90E001968F739927848F06
:10024000A689B7892C93A089B1898C918370806429
:100250008C93938D848D981306C00288F389E02DCA
:1002600080818F7D80830895EF92FF920F931F937B
:10027000CF93DF93EC0181E0888F9B8D8C8D981359
:100280001AC0E889F989808185FF15C09FB7F89465
:10029000EE89FF896083E889F989808183708064B1
:1002A00080839FBF81E090E0DF91CF911F910F91FC
:1002B000FF90EF900895F62E0B8D10E00F5F1F4F0B
:1002C0000F731127E02E8C8D8E110CC00FB607FC1A
:1002D000FACFE889F989808185FFF5CFCE010E94A8
:1002E0001201F1CFEB8DEC0FFD2FF11DE35AFF4F03
:1002F000F0829FB7F8940B8FEA89FB898081806236
:10030000CFCFCF93DF93EC01888D8823B9F0AA89F2
:10031000BB89E889F9898C9185FD03C0808186FDC0
:100320000DC00FB607FCF7CF8C9185FFF2CF80810F
:1003300085FFEDCFCE010E941201E9CFDF91CF9171
:10034000089590E0FC01EE58FF4F2491FC01E25526
:10035000FF4F3491FC01E656FF4FE491EE23C9F0C4
:10036000222339F0233001F1A8F4213019F1223091
:1003700029F1F0E0EE0FFF1FE057FF4FA591B49178
:100380008FB7F894EC91611126C030953E233C93D1
:100390008FBF08952730A9F02830C9F0243049F7DD
:1003A000809180008F7D03C0809180008F77809343
:1003B0008000DFCF84B58F7784BDDBCF84B58F7DA0
:1003C000FBCF8091B0008F778093B000D2CF809127
:1003D000B0008F7DF9CF3E2BDACFCF93DF9390E043
:1003E000FC01E255FF4F249186569F4FFC018491FA
:1003F0008823D1F090E0880F991FFC01E859FF4F46
:10040000A591B491FC01E057FF4FC591D4916111C2
:100410000EC09FB7F8948C91E22FE0958E238C93B9
:100420002881E223E8839FBFDF91CF9108958FB7A2
:10043000F894EC91E22BEC938FBFF6CF3FB7F89492
:100440008091D7019091D801A091D901B091DA01A2
:1004500026B5A89B05C02F3F19F00196A11DB11D1F
:100460003FBFBA2FA92F982F8827BC01CD01620F5B
:10047000711D811D911D42E0660F771F881F991F16
:100480004A95D1F708958F929F92AF92BF92CF92E3
:10049000DF92EF92FF924B015C010E941E026B0102
:1004A0007C010E941E026C197D098E099F09683E1D
:1004B000734081059105A8F321E0821A9108A108F3
:1004C000B10888EEC80E83E0D81EE11CF11C81142F
:1004D0009104A104B10429F7FF90EF90DF90CF9031
:1004E000BF90AF909F908F90089508952091DD0167
:1004F0003091DE012817390771F49091DB0180916A
:10050000DC01981741F0E091DB01F0E0EE56FE4F80
:10051000808190E008958FEF9FEF08950895EF9206
:10052000FF920F931F93CF93DF93DC015C96ED90C6
:10053000FC905D97E114F10479F481E090E013966A
:100540009C938E93129790E080E0DF91CF911F9162
:100550000F91FF90EF9008955196ED91FC91529775
:1005600050968C915097982F90950FB75E962C913E
:100570005E97122F127021FD6095F894208111234F
:1005800019F1282B2083E7012197F1F728E0462F66
:1005900050E0308160FF1AC0382B3083E70121978B
:1005A000F1F7BA0175956795215089F7112381F00C
:1005B0008081892380830FBF5C968D919C910197E8
:1005C000F1F781E090E0C1CF2923DCCF3923E5CFDB
:1005D0009081892BEFCF2091DD013091DE0128172A
:1005E000390771F48091DC012091DB0190E0805C9F
:1005F0009F4F821B910960E470E00E94DF0C089518
:1006000090E080E008952091DD013091DE0128170F
:100610003907B9F49091DB018091DC01981789F0DA
:10062000E091DB01F0E0EE56FE4F80812091DB018E
:1006300030E02F5F3F4F2F7333272093DB0190E093
:1006400008958FEF9FEF089590E080E00895CF9395
:10065000DF93EC0160E08E810E94A10161E08E8158
:100660000E94A10160E08E810E94A1018BE891E0CF
:100670000197F1F7DF91CF910895CF92DF92EF923A
:10068000FF920F931F93CF93DF936C017C0187E060
:10069000E80EF11CD0E0C0E0062F10E0B8010C2EEF
:1006A00002C0759567950A94E2F76170F701819130
:1006B0007F010E94A1012196C430D10579F7C601BE
:1006C000DF91CF911F910F91FF90EF90DF90CF902E
:1006D0000C942703CF92DF92EF92FF920F931F9318
:1006E000CF93DF93EC01F62E642F8C810E94A10141
:1006F0008D818F3F19F060E00E94A1010F2D10E065
:100700008F8584FF25C06E0187E0C80ED11CF12CB7
:10071000E12CB8010E2C02C0759567950A94E2F79A
:100720006170F60181916F010E94A101FFEFEF1A44
:10073000FF0A88E0E816F10461F7CE01DF91CF915E
:100740001F910F91FF90EF90DF90CF900C942703B3
:10075000B80184E0759567958A95E1F7CE010E940E
:100760003D036F2DCE01DF91CF911F910F91FF902F
:10077000EF90DF90CF900C943D0340E0682F8CE821
:1007800092E00C946A0381E00E94BD038BE39FE139
:100790000197F1F70895CF93DF93823029F4909178
:1007A0009B02986090939B0280939F021092A002FC
:1007B00080E48093A10280E18093A20280E580938F
:1007C000A30261E0809190020E94ED01809191026C
:1007D0008F3F19F061E00E94ED0161E0809192028B
:1007E0000E94ED01CCE8D2E09E012C58324080916D
:1007F0009B0284FD0BC084E090E021962817390706
:1008000044F461E08E810E94ED01EECF88E090E03B
:10081000F4CF8BE39DE00197F1F760E080919002C7
:100820000E94A10160E0809192020E94A10180914A
:1008300091028F3F19F060E00E94A10180919B021C
:1008400084FD34C063E08CE892E00E943D03CBE479
:10085000D6E4CE010197F1F763E08CE892E00E94C4
:100860003D032197F1F763E08CE892E00E943D039D
:1008700083E592E00197F1F762E08CE892E00E9454
:100880003D0380919B0280620E94BD0384E08093BF
:100890009C028CE00E94BD030E94C30382E080930F
:1008A0009D0286E0DF91CF910C94BD0380620E948F
:1008B000BD038BE496E40197F1F780919B0280627F
:1008C0000E94BD0383E592E00197F1F780919B02BE
:1008D00080620E94BD03D5CF90919F02691710F0EE
:1008E0006FEF690FE62FF0E0E457FD4F9489890F11
:1008F00080680C94BD0341E00E946A0381E090E0AF
:100900000895FB0101900020E9F73197AF01461BE4
:10091000570BDC01ED91FC910280F381E02D0994ED
:100920008F929F92AF92BF92EF92FF920F931F937D
:10093000CF93DF93CDB7DEB7A1970FB6F894DEBFA4
:100940000FBECDBF7C01FA01CB0119A2223008F401
:100950002AE08E010F5D1F4F822E912CB12CA12C0D
:10096000BF01A50194010E94F30CF901CA016A308C
:100970000CF5605DD8016E938D01232B242B252B64
:1009800079F790E080E0109721F0BD01C7010E9447
:100990008104A1960FB6F894DEBF0FBECDBFDF91E4
:1009A000CF911F910F91FF90EF90BF90AF909F90CC
:1009B0008F900895695CDECF2F923F924F925F92A5
:1009C0006F927F928F929F92AF92BF92CF92DF925F
:1009D000EF92FF921F93CF93DF93EC016A017B01AB
:1009E000722EAB019601CB01B6010E94DA0C66E3D0
:1009F00071E0811126C046015701E894B7F82FEF46
:100A00003FEF4FE75FE7C501B4010E94DA0C8111A7
:100A10000CC02FEF3FEF4FE75FE7C501B4010E9425
:100A20006C0A6AE371E0181664F02FEF3FEF4FE7AE
:100A30005FE4C701B6010E94D50C1816B4F46EE34A
:100A400071E0CE01DF91CF911F91FF90EF90DF9089
:100A5000CF90BF90AF909F908F907F906F905F905E
:100A60004F903F902F900C9481042FEF3FEF4FE772
:100A70005FECC701B6010E946C0A87FDE0CF20E061
:100A800030E0A901C701B6010E946C0A312C212C6B
:100A900087FF09C06DE2CE010E948D001C01F7FAAC
:100AA000F094F7F8F09410E060E070E080E09FE3ED
:100AB000711641F020E030E040E251E40E94340C35
:100AC0001F5FF6CFA70196010E94C80B2B013C01C6
:100AD0000E94A60C4B015C012AE0BC01A401CE01DE
:100AE0000E9490047C01E20CF31C1123C1F1C501AA
:100AF000B4010E94710A9B01AC01C301B2010E94C2
:100B0000C70B4B015C016EE2CE010E948D00E80E26
:100B1000F91E115020F120E030E040E251E4C5011F
:100B2000B4010E94D20A2B013C010E94A60C4B0189
:100B3000B12CA12C2AE0B501A401CE010E949004A1
:100B4000E80EF91EC501B4010E94710A9B01AC01B7
:100B5000C301B2010E94C70B4B015C01DACFC70190
:100B6000DF91CF911F91FF90EF90DF90CF90BF90DA
:100B7000AF909F908F907F906F905F904F903F903D
:100B80002F9008950F931F93CF93DF93EC010E9452
:100B900081048C0162E471E0CE010E948104800F27
:100BA000911FDF91CF911F910F9108951F920F9286
:100BB0000FB60F9211242F933F934F935F936F9330
:100BC0007F938F939F93AF93BF93EF93FF9389EEA0
:100BD00091E00E941201FF91EF91BF91AF919F911F
:100BE0008F917F916F915F914F913F912F910F90D6
:100BF0000FBE0F901F9018951F920F920FB60F9275
:100C000011242F938F939F93EF93FF93E091F9011A
:100C1000F091FA018081E091FF01F091000282FDE4
:100C20001BC09081809102028F5F8F73209103021D
:100C3000821741F0E0910202F0E0E751FE4F958FFC
:100C400080930202FF91EF919F918F912F910F90CE
:100C50000FBE0F901F9018958081F4CF1F920F92B6
:100C60000FB60F9211242F933F938F939F93AF93BF
:100C7000BF938091D3019091D401A091D501B091FF
:100C8000D6013091D20123E0230F2D3758F501967C
:100C9000A11DB11D2093D2018093D3019093D40163
:100CA000A093D501B093D6018091D7019091D8013E
:100CB000A091D901B091DA010196A11DB11D8093D7
:100CC000D7019093D801A093D901B093DA01BF91D5
:100CD000AF919F918F913F912F910F900FBE0F90E9
:100CE0001F90189526E8230F0296A11DB11DD2CFA3
:100CF0001F920F920FB60F9211242F933F934F9391
:100D00005F936F937F938F939F93AF93BF93EF9373
:100D1000FF93E091DD01F091DE01309749F0A68567
:100D2000B7858585968D91FF14C09C918923A1F488
:100D3000FF91EF91BF91AF919F918F917F916F91B3
:100D40005F914F913F912F910F900FBE0F901F9089
:100D500018959C91892361F7A389B4899C91858911
:100D6000809589238C93868997890197F1F7608D07
:100D7000718DA685B785558538E020E0CB010197B8
:100D8000F1F7822F90E095958795282F4C91452378
:100D900009F02068315091F7868D81FD2095809172
:100DA000DC0190E001968F7399273091DB013817B1
:100DB00099F0A091DC01B0E0AE56BE4F2C93809329
:100DC000DC01828D938D0197F1F7A389B4898C9111
:100DD0009589892B8C93ACCF868D8160868FF1CFDE
:100DE0001092EC011092EB0188EE93E0A0E0B0E0ED
:100DF0008093ED019093EE01A093EF01B093F00189
:100E00002AE031E03093EA012093E90125EC30E05B
:100E10003093F6012093F50124EC30E03093F80193
:100E20002093F70120EC30E03093FA012093F90190
:100E300021EC30E03093FC012093FB0122EC30E008
:100E40003093FE012093FD0126EC30E03093000248
:100E50002093FF01109202021092030210920402EA
:100E6000109205021092A7021092A6028093A80287
:100E70009093A902A093AA02B093AB0288E291E0FA
:100E80009093A5028093A4021092BB021092BA0222
:100E90001092BD021092BC021092BF021092BE02CC
:100EA0001092C1021092C0026091C2026E7F6D7FEB
:100EB0006093C2026695617081E0682789E00E94B4
:100EC000A10161E089E00E94ED01E7EBF0E0E4912F
:100ED000E093B402E3EAF0E0E491F0E0EE0FFF1FEC
:100EE000E057FF4F859194919093B6028093B5029D
:100EF00060E088E00E94ED018091C20281FD04C0A3
:100F000061E088E00E94A10188E08093B002E6EBF6
:100F1000F0E0E491E093B102E2EAF0E0E491F0E085
:100F2000EE0FFF1FEA57FF4F859194919093B30204
:100F30008093B20210928F0210928E028CE191E0A7
:100F400090938D0280938C0282E0809390028FEFC9
:100F50008093910283E08093920284E080939302D5
:100F600085E08093940286E08093950287E08093E9
:100F70009602109297021092980210929902109283
:100F80009A0210929B0281E00E94CB03109287028A
:100F900010928602109289021092880210928B029F
:100FA00010928A026AE270E090E080E00E94540EA3
:100FB000009701F1909387028093860229E230E046
:100FC000309389022093880220918A0230918B020B
:100FD000232B11F4FC01108289E290E090938B02A4
:100FE00080938A0265E471E0809186029091870285
:100FF0000C941A0F8091860290918702009711F04D
:101000000E94CB0D109287021092860210928B02E2
:1010100010928A02109289021092880208957894A0
:1010200084B5826084BD84B5816084BD85B58260ED
:1010300085BD85B5816085BD80916E00816080939E
:101040006E00109281008091810082608093810007
:101050008091810081608093810080918000816017
:10106000809380008091B10084608093B100809172
:10107000B00081608093B00080917A00846080939A
:101080007A0080917A00826080937A0080917A0061
:10109000816080937A0080917A00806880937A00E2
:1010A0001092C100E091F901F091FA0182E0808391
:1010B000E091F501F091F6011082E091F701F091D5
:1010C000F8018FEC808310920102E091FD01F09114
:1010D000FE0186E08083E091FB01F091FC018081BC
:1010E00080618083E091FB01F091FC018081886048
:1010F0008083E091FB01F091FC0180818068808316
:10110000E091FB01F091FC0180818F7D8083109242
:10111000BF021092BE021092BD021092BC02109249
:10112000BB021092BA028DE991E09093C1028093C4
:10113000C0029091B002963108F047C02DEB30E02C
:101140003093BB022093BA022BE931E03093BD0209
:101150002093BC022CE231E03093BF022093BE0208
:101160002091680084E0983048F031E09E3008F427
:1011700030E081E001C0880F3A95EAF7822B809336
:1011800068002DE630E0983050F02BE630E09E30DD
:1011900030F02CE630E0963110F030E020E0309373
:1011A000B8022093B702292F30E0983008F063C1CD
:1011B00081E001C0880F9A95EAF78093B902809187
:1011C000C0029091C1020197F1F78091BE02909107
:1011D000BF02892B49F1E091DD01F091DE0182E04F
:1011E000E43AF80709F1309739F0A389B4899C9162
:1011F0008589809589238C938091C2028E7F80930C
:10120000C2021092DC011092DB0184EA92E090931A
:10121000DE018093DD01E091B702F091B802808198
:101220009091B902892B80836FE671E089EE91E09D
:101230000E94C2056FE671E084EA92E00E94C20556
:1012400060E08EE00E94ED0182E00E94CB03C0E0EE
:101250000E94C30360E08C2F0E946C0440918A02BC
:1012600050918B0260918602709187028CE892E027
:101270000E94940060E971E080E090E00E944302E7
:10128000C150C43C29F70E94C30390E4B92E04E680
:1012900010E020E0E22E20E0F22E1092E801109201
:1012A000E70184E6C82ED12CB0927C0080917A00B0
:1012B000806480937A0080917A0086FDFCCF8091D3
:1012C0007800C0917900DC2FC82F8091E7019091C0
:1012D000E801C80FD91FD093E801C093E70161E08E
:1012E00070E080E090E00E94430281E0C81AD108DB
:1012F000D9F6CE01B8010E94DF0C7093E80160932B
:10130000E701072E000C880B990B0E94730A20E05E
:1013100030EC4FE754E40E94340C20E030E44CE918
:1013200055E40E94D20A2DEC3CEC4CEC5DE30E94AB
:10133000D20A6093E3017093E4018093E5019093F6
:10134000E60126E636E646EE5FE30E94D20A20E09A
:1013500030E040E052E40E94C80B6093DF017093DC
:10136000E0018093E1019093E20160E080E00E945F
:101370006C0465E771E08CE892E00E94810461E012
:1013800080E00E946C044091E3015091E40160917F
:10139000E5017091E60121E08CE892E00E94DC0416
:1013A0006FED8CE892E00E948D0066E871E08CE8B9
:1013B00092E00E94810461E089E00E946C04409107
:1013C000DF015091E0016091E1017091E20121E0C3
:1013D0008CE892E00E94DC046FED8CE892E00E94C1
:1013E0008D006AE871E08CE892E00E9481046EE86A
:1013F00071E084EA92E00E94810460E971E084EA8D
:1014000092E00E9481044091E3015091E4016091D7
:10141000E5017091E60120E084EA92E00E94DC049C
:1014200060E971E084EA92E00E9481044091DF016A
:101430005091E0016091E1017091E20120E084EAC5
:1014400092E00E94DC0460E971E084EA92E00E948C
:10145000C20568EE73E080E090E00E944302E11470
:10146000F10409F41ACF0E94FE00882309F415CF75
:101470000E94000012CF9E3040F42850310981E0D4
:1014800001C0880F2A95EAF798CE2E503109F7CF80
:101490008091860290918702009711F00E94CB0DF7
:1014A00088E291E09093A5028093A4028091DD01EF
:1014B0009091DE01845A924071F4E091B702F0916C
:1014C000B80290818091B90280958923808310921F
:1014D000DE011092DD0108950E94AE0A08F481E059
:1014E0000895E89409C097FB3EF490958095709517
:1014F00061957F4F8F4F9F4F9923A9F0F92F96E960
:10150000BB279395F695879577956795B795F111D4
:10151000F8CFFAF4BB0F11F460FF1BC06F5F7F4F71
:101520008F4F9F4F16C0882311F096E911C0772383
:1015300021F09EE8872F762F05C0662371F096E88C
:10154000862F70E060E02AF09A95660F771F881F5B
:10155000DAF7880F9695879597F90895990F0008FF
:10156000550FAA0BE0E8FEEF16161706E807F90775
:10157000C0F012161306E407F50798F0621B730B10
:10158000840B950B39F40A2661F0232B242B252B91
:1015900021F408950A2609F4A140A6958FEF811D34
:1015A000811D08950E94E50A0C94560B0E94480B79
:1015B00038F00E944F0B20F0952311F00C943F0B54
:1015C0000C94450B11240C948A0B0E94670B70F34A
:1015D000959FC1F3950F50E0551F629FF001729FD8
:1015E000BB27F00DB11D639FAA27F00DB11DAA1FE7
:1015F000649F6627B00DA11D661F829F2227B00D34
:10160000A11D621F739FB00DA11D621F839FA00DBE
:10161000611D221F749F3327A00D611D231F849F0E
:10162000600D211D822F762F6A2F11249F57504065
:101630009AF0F1F088234AF0EE0FFF1FBB1F661FE0
:10164000771F881F91505040A9F79E3F510580F0A9
:101650000C943F0B0C948A0B5F3FE4F3983ED4F359
:10166000869577956795B795F795E7959F5FC1F74D
:10167000FE2B880F911D9695879597F9089597F9F8
:101680009F6780E870E060E008959FEF80EC089528
:1016900000240A9416161706180609060895002451
:1016A0000A9412161306140605060895092E0394CB
:1016B000000C11F4882352F0BB0F40F4BF2B11F43F
:1016C00060FF04C06F5F7F4F8F4F9F4F089557FD9E
:1016D0009058440F551F59F05F3F71F04795880FA0
:1016E00097FB991F61F09F3F79F087950895121637
:1016F00013061406551FF2CF4695F1DF08C01616E3
:1017000017061806991FF1CF869571056105089493
:101710000895E894BB2766277727CB0197F90895AA
:101720002F923F924F925F926F927F928F929F92F1
:10173000AF92BF92CF92DF92EF92FF920F931F93DF
:10174000CF93DF93CDB7DEB7CA1BDB0B0FB6F89490
:10175000DEBF0FBECDBF09942A88398848885F84D0
:101760006E847D848C849B84AA84B984C884DF8041
:10177000EE80FD800C811B81AA81B981CE0FD11D25
:101780000FB6F894DEBF0FBECDBFED0108955058DF
:10179000BB27AA270E94DF0B0C94560B0E94480B14
:1017A00038F00E944F0B20F039F49F3F19F426F4D3
:1017B0000C94450B0EF4E095E7FB0C943F0BE92FDE
:1017C0000E94670B58F3BA176207730784079507DF
:1017D00020F079F4A6F50C94890B0EF4E0950B2E0D
:1017E000BA2FA02D0B01B90190010C01CA01A00173
:1017F0001124FF27591B99F0593F50F4503E68F1CE
:101800001A16F040A22F232F342F4427585FF3CF0E
:10181000469537952795A795F0405395C9F77EF4DF
:101820001F16BA0B620B730B840BBAF09150A1F028
:10183000FF0FBB1F661F771F881FC2F70EC0BA0FAE
:10184000621F731F841F48F4879577956795B79536
:10185000F7959E3F08F0B0CF9395880F08F0992731
:10186000EE0F9795879508950E94480C0C94560B9F
:101870000E944F0B58F00E94480B40F029F45F3F44
:1018800029F00C943F0B51110C948A0B0C94450BCE
:101890000E94670B68F39923B1F3552391F3951BCD
:1018A000550BBB27AA2762177307840738F09F5F81
:1018B0005F4F220F331F441FAA1FA9F335D00E2EEE
:1018C0003AF0E0E832D091505040E695001CCAF75B
:1018D0002BD0FE2F29D0660F771F881FBB1F26171E
:1018E00037074807AB07B0E809F0BB0B802DBF01F5
:1018F000FF2793585F4F3AF09E3F510578F00C94C4
:101900003F0B0C948A0B5F3FE4F3983ED4F386952B
:1019100077956795B795F7959F5FC9F7880F911DE4
:101920009695879597F90895E1E0660F771F881FD0
:10193000BB1F621773078407BA0720F0621B730B83
:10194000840BBA0BEE1F88F7E09508950E946F0B89
:1019500088F09F5798F0B92F9927B751B0F0E1F070
:10196000660F771F881F991F1AF0BA95C9F714C020
:10197000B13091F00E94890BB1E008950C94890B6D
:10198000672F782F8827B85F39F0B93FCCF3869559
:1019900077956795B395D9F73EF4909580957095B6
:1019A00061957F4F8F4F9F4F08950E94AE0A08F4B4
:1019B0008FEF08950E94AE0A880B990B089597FB4C
:1019C000072E16F4009407D077FD09D00E94150D5C
:1019D00007FC05D03EF4909581959F4F0895709532
:1019E00061957F4F0895A1E21A2EAA1BBB1BFD0132
:1019F0000DC0AA1FBB1FEE1FFF1FA217B307E407EE
:101A0000F50720F0A21BB30BE40BF50B661F771F45
:101A1000881F991F1A9469F7609570958095909525
:101A20009B01AC01BD01CF010895AA1BBB1B51E175
:101A300007C0AA1FBB1FA617B70710F0A61BB70B3E
:101A4000881F991F5A95A9F780959095BC01CD01E3
:101A50000895EE0FFF1F0590F491E02D09940F9368
:101A60001F93CF93DF938230910510F482E090E0D2
:101A7000E091C502F091C60230E020E0B0E0A0E0C5
:101A8000309799F42115310509F44AC0281B390B08
:101A900024303105D8F58A819B816115710589F162
:101AA000FB0193838283FE0111C040815181028139
:101AB000138148175907E0F04817590799F4109710
:101AC00061F012960C93129713961C933296CF01E5
:101AD000DF91CF911F910F9108950093C50210934C
:101AE000C602F4CF2115310551F04217530738F0E3
:101AF000A901DB019A01BD01DF01F801C1CFEF01AE
:101B0000F9CF9093C6028093C502CDCFFE01E20FBC
:101B1000F31F819391932250310939832883D7CFC2
:101B20002091C3023091C402232B41F42091020181
:101B3000309103013093C4022093C302209100012D
:101B4000309101012115310541F42DB73EB7409187
:101B5000040150910501241B350BE091C302F09163
:101B6000C402E217F307A0F42E1B3F0B2817390716
:101B700078F0AC014E5F5F4F2417350748F04E0FE9
:101B80005F1F5093C4024093C302819391939FCFF0
:101B9000F0E0E0E09CCFCF93DF930097E9F0FC0109
:101BA000329713821282A091C502B091C602ED0154
:101BB00030E020E01097A1F420813181820F931F43
:101BC0002091C3023091C4022817390709F061C07F
:101BD000F093C402E093C302DF91CF910895EA012C
:101BE000CE17DF07E8F54A815B819E01411551055B
:101BF000B1F7E901FB83EA8349915991C40FD51FDD
:101C0000EC17FD0761F4808191810296840F951F86
:101C1000E90199838883828193819B838A83F0E0A1
:101C2000E0E012968D919C9113970097B9F52D9154
:101C30003C911197CD010296820F931F2091C30210
:101C40003091C4022817390739F6309751F51092B0
:101C5000C6021092C502B093C402A093C302BCCFC7
:101C6000D383C28340815181840F951FC817D90740
:101C700061F44E5F5F4F88819981480F591F5183EE
:101C800040838A819B81938382832115310509F0EA
:101C9000B0CFF093C602E093C5029ECFFD01DC01F8
:101CA000C0CF13821282D7CFB0E0A0E0EAE5FEE019
:101CB0000C94920B8C01009751F4CB010E942F0DD4
:101CC0008C01C801CDB7DEB7E0E10C94AE0BFC018E
:101CD000E60FF71F9C0122503109E217F30708F4C1
:101CE0009DC0D901CD91DC911197C617D70798F007
:101CF000C530D10530F3CE0104978617970708F356
:101D0000C61BD70B2297C193D1936D937C93CF01C0
:101D10000E94CB0DD6CF5B01AC1ABD0A4C018C0ED4
:101D20009D1EA091C502B091C602512C412CF12CF0
:101D3000E12C109731F58091C3029091C40288156F
:101D4000990509F05CC04616570608F058C0809106
:101D5000000190910101009741F48DB79EB7409129
:101D6000040150910501841B950BE817F90708F051
:101D700055C0F093C402E093C302F90171836083FC
:101D8000A0CF8D919C91119712966C9012971396FB
:101D90007C901397A815B90559F56C0142E0C40E63
:101DA000D11CCA14DB0420F1AC014A195B09DA0129
:101DB0001296159780F06282738251834083D90115
:101DC0006D937C93E114F10471F0D7011396FC93A9
:101DD000EE93129776CF22968C0F9D1FF901918377
:101DE0008083F301EFCFF093C602E093C50269CF81
:101DF0004816590608F42C017D01D3019ACFCB0176
:101E00000E942F0D7C01009749F0AE01B8010E949D
:101E1000110FC8010E94CB0D870153CF10E000E0E5
:101E200050CFFB01DC0102C001900D9241505040A7
:101E3000D8F70895FB01DC0101900D920020E1F735
:101E4000089510E0C2E6D0E004C0FE010E94290D12
:0C1E50002196C336D107C9F7F894FFCFE4
:101E5C000000C70280000000000034019400C100A3
:101E6C008101F200D000E400000000007B0494002B
:101E7C0024037502000000008F02940024038E02DC
:101E8C00EB02030376026E616E00696E66006F767C
:101E9C0066000D0A005375627363726962652054A3
:101EAC006F204D79204368616E6E656C20456E67BE
:101EBC0072204B6173686966204D69727A610052B9
:101ECC00656164790020202054656D7065726174C1
:101EDC00757265202000432020004620200053000E
:021EEC003B00B9
:00000001FF
